:020000040002F8
:1000000018F09FE51CF09FE518F09FE514F09FE5C0
:1000100010F09FE5886FA0B804F09FE504F09FE51D
:10002000900202002003020058030200580302005D
:1000300058030200580302005803020049544C20A0
:10004000456E61626C657220496E746572666163AB
:1000500065204361726400000000000000000000A1
:100060000000000000000000000000000000000090
:10007000000000008D3E850C2C8B0100322E302EAE
:100080003239000000000000000000000000000005
:100090000000000000000000000000000000000060
:1000A0000000000000000000000000000000000050
:1000B0000000000000000000000000000000000040
:1000C00000000FE11F00C0E31B1080E301F02FE1EF
:1000D00038D19FE5171080E301F02FE130D19FE583
:1000E000121080E301F02FE128D19FE5111080E389
:1000F00001F02FE120D19FE5131080E301F02FE103
:1001000018D19FE51F1080E301F02FE110D19FE58A
:1001100010019FE510119FE510219FE52E0000EBD7
:100120000C019FE50C119FE50C219FE52A0000EBD7
:1001300008019FE508119FE508219FE5260000EBD7
:1001400004019FE504119FE504219FE5220000EBD7
:1001500000019FE500119FE500219FE51E0000EBD7
:10016000FC009FE5FC109FE5FC209FE51A0000EBDA
:10017000F8009FE5F8109FE50020A0E31F0000EBCA
:10018000F0009FE5F0109FE5001041E0080051E30A
:100190000020A0A3042080A4001080A5AC009FE54F
:1001A000AC109FE5010050E10500000A042090E436
:1001B00003002DE90FE0A0E112FF2FE10300BDE8ED
:1001C000F7FFFFEA0000A0E30010A0E3AC209FE5EA
:1001D0000FE0A0E112FF2FE1FEFFFFEA010050E176
:1001E0000EF0A001012052E00EF0A0010130D0E499
:1001F0000130C1E4012052E2FBFFFF1A0EF0A0E142
:10020000010050E10EF0A0010120C0E4FBFFFFEA75
:10021000387500403875004038740040387500402B
:100220003875004038720040588903003C00004097
:10023000100200407C0302007C030200E047030040
:10024000588903003C0000403C000040E0470300A8
:10025000E0470300E0470300E0470300E0470300F6
:10026000E0470300E0470300E0470300588903002C
:1002700010020040385E0040385E0040386E00409A
:10028000ED3003000000A0E10000A0E10000A0E1CB
:1002900000000FE11F00C0E31B1080E301F02FE11D
:1002A000B4D09FE5171080E301F02FE1ACD09FE5BB
:1002B000121080E301F02FE1A4D09FE5111080E33C
:1002C00001F02FE19CD09FE5131080E301F02FE1B6
:1002D00094D09FE51F1080E301F02FE18CD09FE5C3
:1002E0008C009FE50FE0A0E110FF2FE184009FE567
:1002F00010FF2FE100C00FE1C0C08CE30CF021E142
:1003000000C00FE1C0C01CE2F9FFFF0A1EFF2FE191
:1003100000C00FE1C0C0CCE30CF021E11EFF2FE1D3
:1003200001002DE900004FE1800010E30100BDE86D
:1003300004F05E121F502DE9FF40E0E3003094E529
:100340000FE0A0E113FF2FE10030A0E3003084E5CF
:100350001F50BDE804F05EE2FEFFFFEA3875004082
:1003600038750040387400403875004038750040DA
:1003700038720040592A0300ED30030000B502F046
:100380002DFC044B1B68002B02D1034A034B1A605F
:1003900001BC004754020040D40100405404004016
:1003A00010B50C4C0C49201C13F00CFF201C03F062
:1003B00023FA0A4C2368002B04D000200BF03EF9EE
:1003C00000232360012002F057F901F0CFFC10BC9C
:1003D00001BC0047FC5C0040E047030058020040BD
:1003E00010B50A4C0A49201C13F0ECFE201C03F047
:1003F00003FA084B1B68002B01D001F08FFE002090
:1004000002F03AF910BC01BC0047C046FC5C004059
:10041000EF4703005402004010B5064C142323702C
:1004200003F05AF90123C8386060237210BC01BC84
:100430000047C0461002004010B5214CC82160683A
:1004400003F02EF9002838D023785A1E2270DA07DC
:100450000ED50020012102F0F9FA0320002102F05C
:10046000F5FA0120012102F0F1FA022001210DE04C
:100470000020002102F0EAFA0320012102F0E6FA4E
:100480000120002102F0E2FA0220002102F0DEFA4F
:100490000B4B1A78002A0CD11A720320012102F0AA
:1004A000D5FA0120002102F0D1FA0220002102F049
:1004B000CDFA03F011F9024B586010BC01BC0047A3
:1004C0001002004000B5054BDA6851425141D96035
:1004D000002002F0BBFA01BC0047C04610020040F9
:1004E00010B52F4CFA2182B02069490003F0D8F8EA
:1004F000002851D003F0F0F82061FFF7E3FF294B0B
:100500001B68002B01D002F0F3FF254C26496069DF
:1005100003F0C6F800283FD000200AF0CFFD0120EC
:100520000AF0CCFD02200AF0C9FD03F0D5F86061A5
:1005300002F038FB228B03041B0C002A07D01B049B
:10054000120412141B149B18DA0FD3185B102383A8
:1005500002F01AFB124B1C8B220413141349D217FE
:10056000920FD2180B409210002B04DA0421013BA9
:1005700049420B4301339900CB1899005B181B04C7
:10058000240401901B14241409480A49009413F010
:1005900019FE074803F030F902B010BC01BC004757
:1005A000100200405802004060EA00000300008092
:1005B000FC5C00400248030010B5274C83B027497B
:1005C000274A201C13F0FEFD201C03F015F9254BD3
:1005D00025491A78201C13F0F5FD201C03F00CF9B6
:1005E00002F06EF82149021C201C13F0EBFD201CC8
:1005F00003F002F91E4B009382235B000193182342
:100600000293C4231B491C4A5B00201C13F0DAFD33
:10061000201C03F0F1F801F091FB0AF023FE03F037
:1006200023FD002806D1201C144913F0CBFD201C0B
:1006300003F0E2F8002002F08DF903F04DF8104CC1
:1006400000212061002002F001FA03F045F803B018
:10065000606110BC01BC0047FC5C00402548030001
:100660004248030080C11FE0494803005E48030080
:10067000B40500006B480300E8440000A8480300EC
:100680001002004030B5164CE369051C002B02D067
:10069000032B21D10AE0082161200CF0B5FFFFF700
:1006A0008BFF0323E36101F075FB15E00D4B1B6825
:1006B000002B01D001F0F4FE0B4B1B68002B02D085
:1006C000281C01F0D1FC064B1B7A002B02D0FFF74F
:1006D000B3FE01E0FFF704FF30BC01BC0047C04699
:1006E00010020040540200405802004030B50D4B4B
:1006F0001C8C0D4B0204E4180323120C1C4201D085
:100700009C430434094BA5189D4201D9002006E002
:10071000201C00210BF0A8FE024B1D84201C30BCC5
:1007200002BC0847100200400000D07FFF1FD07FAE
:1007300000B501F057FB002809D103F001FC0028A7
:1007400005D1022001F0C2FF431E984100E00120C4
:1007500002F000F901BC004700B50320002102F0BF
:1007600075F9FFF7E5FF0AF0BFFC01BC0047C04682
:1007700000B50320012102F069F9FFF7D9FF01BCA0
:100780000047C04643680268013BD80FC318013ACE
:1007900052005B10D01801307047C0464368DA1E23
:1007A000013B504250415A425A41104301235840A4
:1007B0000006000E7047C04610B50C1CFFF7E2FFA4
:1007C000211C02F0F9F810BC01BC004730B5041C34
:1007D0000D1C0121FFF7F0FF6368DA1E013B504258
:1007E00050415A425A411043012358400006291CE7
:1007F000000E04F0A9F80021051C201CFFF7DCFF07
:10080000281C30BC02BC084700B50521FFF7DEFFFD
:100810004023184002BC084700B50921FFF7D6FF66
:1008200002BC084700B50821FFF7D0FF02BC08470B
:1008300000B50021FFF7CAFF02BC084770B50D1CC8
:100840000521161C041CFFF7C1FF0123021C1A40DE
:100850002A6080091A1C8243101C5340A268511E52
:100860008A4113403360A06070BC01BC0047C046A1
:1008700000B50521FFF7AAFF02BC0847F0B5041C2C
:100880000D1C0121161C1F1CFFF796FF6368DA1E62
:10089000013B504250415A425A41104301235840B3
:1008A0000006291C321C3B1C000E04F05FF8201CC3
:1008B0000021FFF781FFF0BC01BC004710B50C1C04
:1008C000131C0021221CFFF7D9FF10BC01BC0047FC
:1008D00000B581B06B461A706A460123FFF7CEFF60
:1008E00001B001BC0047C04600B5002901D100227B
:1008F00000E002220421FFF7EBFF01BC0047C046E5
:1009000000B54161002901D1002200E010220F2131
:10091000FFF7DEFF01BC004710B500238360041C15
:100920000321BF22FFF7D4FF201C02211022FFF772
:10093000CFFF201C03210322FFF7CAFF201C042144
:100940000022FFF7C5FF201C67220221FFF7C0FF2E
:10095000201C0121FFF7D4FF201C01210022FFF7FA
:10096000B7FF10BC01BC004710B5041C0721DE22F4
:10097000FFF7AEFF201C0721FFF728FFDE2801D07C
:1009800000200CE0201C07217222FFF7A1FF201C91
:100990000721FFF71BFF031C723B5842584110BC54
:1009A00002BC0847F0B50D1C03211706041CFFF715
:1009B0000DFF3F0E061C002D04D0201CFFF724FF66
:1009C0000028FAD03822564037433A06120E201C2F
:1009D0000321FFF77DFFF0BC01BC0047F0B50D041B
:1009E0002E0C041C360617060321BF22FFF770FFEA
:1009F000320E201C0021FFF76BFF3F0E2A0E201C39
:100A00000121FFF765FF3A1C201C0321FFF760FF5F
:100A1000F0BC01BC0047C04600B51206120E00290A
:100A200003D040231A431206120E0321FFF750FF92
:100A300001BC004700B5002902D00421102201E0CA
:100A400004210022FFF744FF01BC0047431E584227
:100A5000584170470368012B01D10223036070479E
:100A6000012803D0831E5842584102E00139484210
:100A700048417047F0B51C4B1C49C9188C460024EE
:100A800001271B4D00215A1915682E1CFC3676686B
:100A9000012E02D0022E07D101E0012804D16C7092
:100AA0001568AC7015682F70124D01315219042968
:100AB000EAD1114E9B196345E3D1104B104A1E68D1
:100AC000002500230BE011680C68012C02D0022CD9
:100AD00003D101E0012800D10D6001330432B3429B
:100AE000F1DBF0BC01BC004764070040E8440000B3
:100AF000A4050000B4050000F81600003402004010
:100B0000504C004000B50120FFF7B4FF01BC004786
:100B1000FB2300061B06C01809061206000E090E6C
:100B2000120E022801D9032001E00F4B185C0229A4
:100B300003D1042318430006000E032A0BD0032A16
:100B400002D8012A0FD104E0052A06D0072A0AD1CB
:100B500005E0082304E0182302E0282300E03823FE
:100B600018430006000E7047BC48030010B5041C73
:100B7000A36909061006090E000E012B1FD1154BA3
:100B8000E35C002B03D18922D200A0181FE0052BC3
:100B900001D1022100E00121013813F0F5FD0E4BD7
:100BA0001840002804DA042301385B42184301305E
:100BB0000A4A131C43438922D200981806E0074BC7
:100BC0000139181C48438923DB00C018201810BCC9
:100BD00002BC0847CE05000003000080B4050000F9
:100BE00001220021002352420131037343738373B6
:100BF000C3730374427414301029F5D17047C04692
:100C0000C279037A12021B04D2188379D218437A6C
:100C10001B06D0187047C046F0B589B01F060E9B62
:100C20001B061B0E06930F9B1B061B0E079312063B
:100C3000109B120E1E4D0E060592069900921B0483
:100C4000079A041C1B0C360E3F0E08930291039268
:100C50001849221C0493281C331C019713F0B2FA84
:100C6000281C02F0C9FD144B0A21E654E7710698CE
:100C700013F07EFD20721C216B46CB5C6372202238
:100C80006946515A6A46618114218A5CC3235B001C
:100C9000E254A022002300215200E01814334174D2
:100CA0009342FAD1012309B0A371F0BC01BC004703
:100CB000FC5C0040C04803008501000010B50A0636
:100CC000FF2100060906030E4018000E120E02282E
:100CD00004D90E4C0E49201C1A1C0BE0531E1B0697
:100CE0001B0E032B0DD90F2313400F2B09D0074CDC
:100CF0000849201C13F066FA201C02F07DFD00203C
:100D000000E0012010BC02BC0847C046FC5C00406B
:100D1000204903003849030030B51A4D041C0278FD
:100D200083781949281C13F04DFA281C02F064FD41
:100D300020786178FFF7C2FF002820D0227813497D
:100D4000013A0B1C5343124AD3189969A27801291E
:100D50000CD110495A54A022A178120199540E4A7C
:100D6000A17899540D4AA178995408E060780C4C08
:100D70000138211C41435B1806495B181A7030BCCE
:100D800001BC0047FC5C004054490300F816000019
:100D9000640700404C040000B40F00006815000018
:100DA000B405000030B5224D041C02784378214977
:100DB000281C13F007FA281C02F01EFD2078617829
:100DC000FFF77CFF00282FD022781B49013A0B1C2B
:100DD00053431A4AD3189A69012A18D1184A995CC0
:100DE000012901D102219954164A995C012901D1A6
:100DF00002219954144A995C012901D10221995484
:100E0000124A995C01290FD1022199540CE06178B2
:100E10000F480139021C4A439B180E4A9B189A78C6
:100E2000012A01D102229A7030BC01BC0047C046A1
:100E3000FC5C00407A490300F8160000640700409B
:100E40004E040000020A0000B60F00006A15000000
:100E5000B40500004C04000030B500060906140675
:100E6000000E090E240EFFF729FF002810D0631E84
:100E70001B061B0E0F2B01D8012009E0064D074968
:100E8000221C281C13F09EF9281C02F0B5FC00203F
:100E900030BC02BC0847C046FC5C0040A5490300CA
:100EA00030B5C17882B0041C0278837800916179F2
:100EB000007909020143A07900040143E079194D4A
:100EC000000601430191281C174913F07BF9281CE7
:100ED00002F092FC20786178A278FFF7BDFF00282D
:100EE0001CD022781149013A0B1C5343A5781048B5
:100EF00061782A1CC018FFF739FE013DAB005D196F
:100F0000AD004019E278031C10335A7022799A70B0
:100F10006379C374A3790375E379437502B030BC78
:100F200001BC0047FC5C0040BF490300F81600000C
:100F300064070040F0B5817887B00278437800916B
:100F4000C1780191041C6179007909020143029181
:100F5000A1790391217AE079090201430491A17AF0
:100F6000607A3A4E090201430591301C384913F06A
:100F700029F9301C02F040FC20786178A278FFF754
:100F80006BFF00285DD022783249013A0B1C534395
:100F9000314FFF18A37806931A1C6178381CFFF7AD
:100FA000E5FDBB69051C002B0FD1C3235B00C35CAF
:100FB000002B0AD0069B012B07D0301C274913F0C9
:100FC00001F9301C02F018FC3BE0069B013B9A0043
:100FD000D3189B000693EE18E37833736079237976
:100FE00000021843642113F0C3FB371C0C377870E0
:100FF000A379BB70207AE37900021843642113F0CF
:10100000B7FBF870A07A637A000218430A2113F044
:10101000AFFB01235B42043730747B70069B0B4CA3
:10102000327B0C33EB1800920D492A1C201C13F064
:10103000C9F8201C02F0E0FBAB79042B01D102239C
:10104000AB7107B0F0BC01BC0047C046FC5C00407F
:10105000F1490300F8160000640700404C4A030001
:10106000994A030010B50006000E1C1C00F0A4FFF6
:10107000002807D0002C04D02368012B01D10223C3
:101080002360012010BC02BC0847C046F0B5DA4C12
:101090002368EEB0012B26D101F012FB5AAD287067
:1010A000D64800211022684413F00EF8D4480021DD
:1010B0001022684413F008F8D24BD34A995CB52249
:1010C00052006A44D177D14A995CD14A6A44D177B7
:1010D000D04A9A5C5BABDA77CF4B1B880B20AB8492
:1010E000291C262257E2CD4C2368012B19D1CC4D67
:1010F000CC49281C13F066F8281C49AD02F07CFB93
:1011000044220021281C12F0DFFF64232B80FD23E2
:10111000C5496B804AA812F0E1FF0220291C442235
:1011200039E2C24C2368012B0DD1C14BBC4D1A785A
:101130006DAE3270BF49281C13F044F8281C02F031
:101140005BFB1F2025E2AF4D0022BB482C18236813
:10115000012B13D101321206120E6BAE3270B74B57
:10116000EB5CAF4DB6497370281C13F02BF8281CAC
:1011700002F042FB2120311C02220CE26B69012BA0
:1011800014D101321206120E6AAC2270A44E2B7CCE
:10119000AC496370301C13F015F8301C02F02CFBC6
:1011A0002B1C14339820211C0222F5E12968002908
:1011B00001D1042600E00126A34801272B18781E40
:1011C0008446586A012822D1A04B6646181C7043F9
:1011D00001321206120E69AC9D49227067700490AC
:1011E0002B185B181B788E4EA3709A490093301C05
:1011F0003B1C12F0E7FF301C02F0FEFAB926049AFD
:10120000F6009319EB188320211C0322C4E1186A0D
:10121000012828D18D4B6646191C714301321206F4
:10122000120E68AC89262270677004916B18F60064
:101230009919097801310906090E8748A1701B1810
:101240001B78774EE370301C0091019383493B1C5F
:1012500012F0B8FF301C02F0CFFA0499804A8B18C4
:10126000EB186F202DE05868FC30406801282BD126
:10127000764966460B1C73430132120667AC120EA8
:10128000892622706770ED18F600AB1919780131C4
:101290000906090EB520A170C0002D182B68604EFC
:1012A0001B78301CE370009101936E493B1C12F0D7
:1012B00089FF301C02F0A0FA2B68802149005B18DE
:1012C0007120211C042267E11868FC304068012865
:1012D00000D0D7E001326646049206AC012929D13C
:1012E0000021614A201C12F0EFFE10236A469A5C2E
:1012F0002270564A131C7343ED18534B6770ED1858
:101300002B685B7863732B686846D91C5A78263043
:1013100012F0CEFE617B2278E37841480091534978
:1013200012F050FF3E4802F067FA2B6802221A7052
:101330002B6858E0454B181C70434D4910266A46EF
:101340002B18B25C844658188178227067708078B8
:101350000130A0703C481E1830680078E07030689A
:1013600080783B4A20719B1888001B7841188900BF
:10137000604663710A1800238B21A371AD18C90060
:101380006A1851783B48E171291888780002844630
:10139000394829189078394A8978AD18AA7809040B
:1013A00061442373091812068918A16033685B78B9
:1013B000637333686846D91C5A78263012F078FE79
:1013C000A37822780093E3780193637B2C490293FE
:1013D00013483B1C12F0F6FE114802F00DFA336878
:1013E00002221A7033685A78802676000E329B19D2
:1013F0007820211CD0E0C0464C4C00406901000020
:101400007901000064070040F4160000EC2D000094
:101410006B010000E444000028020040E45000405A
:10142000FC5C0040CB4A030042480300E850004007
:10143000E0500040E04A0300F0160000EC16000007
:10144000044B03002F4B0300A4050000B40500006B
:101450004C040000574B0300CC0500007D4B0300FB
:10146000C4050000AB4B03000B010000D94B030087
:1014700094050000590400005A0400005B040000B9
:10148000FF4B0300002967D1464864464443464861
:10149000059324182C190020431C04932368012B66
:1014A00055D1049B19068300181883003D486646F1
:1014B0008446604670430132120664AC120E090E77
:1014C0001B183A4E22700391A17004936770EB18B9
:1014D00099190E783649E67028184018007820715E
:1014E000002060718B20C0001E187078A0710F3131
:1014F000C95C090205912F49C95C09048C4605990C
:101500008C442D495B18B6789B7866441B06F3180B
:101510001E0AA168B446FF2636060E4061460E43F9
:10152000E371A6600399254E00910190244902932E
:10153000301C3B1C12F046FE301C02F05DF91A4EC6
:10154000049A9319EB186520211C0B2224E00498BF
:1015500014341028A0D1059B124801371B18B7423C
:1015600000DC2CE6174901326D18032A00D0ECE5A7
:10157000154C2368012B01D000200FE00F4D6CAEFD
:1015800033701249281C12F01DFE281C02F034F999
:10159000C920311C0122231CFFF764FD6EB0F0BC92
:1015A00002BC0847B40500006404000054040000B5
:1015B0004C0400005C0400005B040000FC5C004084
:1015C0002B4C0300F8160000EC5000405D4C03006B
:1015D00010B50B4C02780B49201C12F0F3FD201CB7
:1015E00002F00AF90849201C12F0ECFD201C02F060
:1015F00003F900F007FC01F021F910BC01BC004721
:10160000FC5C00406F4C0300824C030000B5036893
:10161000002B01D10123036000F0E4FB002802D17C
:101620000120FFF727FA01BC0047C04610B5074C60
:101630000749201C12F0C6FD201C02F0DDF8054809
:10164000FFF7E4FF10BC01BC0047C046FC5C004053
:10165000AA4C0300EC50004030B5017982B002780A
:10166000837800912F4DC17A041C0191281C2E49CA
:1016700012F0A8FD281C02F0BFF820786178A2784B
:10168000FFF7EAFB002849D0E37AFD2B46D8227801
:101690002649013A0B1C534325486178C018A278AB
:1016A000FFF764FABE235B00051CC018FFF7AEFF0E
:1016B0002B1CFC335B6E1B780E2B05D0012B03D04B
:1016C0000C2B01D00D2B25D1C2235B000022EA5444
:1016D000E3782B71A3782B7022792B1CFC33002A22
:1016E00002D05B6E042201E05B6E03221A702B1C99
:1016F000FC335A6EE17A5170586E211C03300C3164
:10170000E27A12F0D5FC63796B70A379AB70237A1F
:10171000EB7003E0C2235B000122EA5402B030BC4C
:1017200001BC0047FC5C0040B84C0300F816000008
:101730006407004030B5114D041C1149281C12F0FB
:1017400041FD281C02F058F820786178FFF7B6FABE
:1017500000280FD022780B49013A0B1C53430A484A
:101760006178C0180122FFF701FAC0235B00C0189E
:10177000FFF74CFF30BC01BC0047C046FC5C00409A
:10178000E34C0300F81600006407004030B5134D29
:10179000041C1349281C12F015FD281C02F02CF81B
:1017A00020786178A278FFF757FB002813D02278C1
:1017B0000C49013A0B1C5343A5780B482A1CC0184E
:1017C0006178FFF7D3F9013DAB005D19AD001C3521
:1017D0004019FFF71BFF30BC01BC0047FC5C004018
:1017E000FD4C0300F816000064070040F0B5817856
:1017F0008AB0027843780091041C2179C0780902EC
:1018000001430191617A207A0902014302916179D1
:101810000391A17904916F4EE179301C05916E49D5
:1018200012F0D0FC301C01F0E7FF20786178FFF760
:1018300045FA002800D1C8E022786849013A0B1C1B
:101840005343674D0839ED186818FFF7DFFEA0789D
:1018500004F086FC00280AD16249301C12F0B2FC68
:10186000301C01F0C9FF604B0222EA54ADE0A378BE
:101870000A2B01D101232B605B4B0022EA54A17992
:101880006079E279FFF744F90790617A237A0902D7
:10189000194307D0554812F077FF0004000C06905A
:1018A000002801D101220692A07804F06BFC627836
:1018B0000F231A400F3A53425341AB61012B54D1CD
:1018C000002825D1E2788923DB00E8180799A3785E
:1018D0000092069A0191029200210022FFF79CF9E2
:1018E000434801212B1800240020494200220130E6
:1018F0001C705A709A70DA701A715971143310286A
:10190000F4D13C4BEA543C4BEA543C4BEA5454E08F
:101910000006000E099000260027394A111C714369
:1019200008918923E278DB00C818A3780799009210
:10193000069A281801910292311C099AFFF76CF956
:101940002B49089801224318EB180021524201311B
:101950001F705F709F70DF701F715A7114331029F0
:10196000F5D10136042ED8D127E06178244B013916
:101970001E1C4E438922D200B7180206E078A378D5
:101980000090079801900698EF190906090E120EAB
:101990000290381CFFF740F9154901227618AD195D
:1019A00000210023524201312B706B70AB70EB7041
:1019B0002B716A7114351029F5D1064C1149201C80
:1019C00012F000FC201C01F017FF0AB0F0BC01BCB3
:1019D0000047C046FC5C0040154D0300F8160000AF
:1019E00064070040674D0300EC16000000941100EE
:1019F00054040000020A0000B60F00006A1500003F
:101A0000B4050000C94D030030B5294D041C81B058
:101A10002849281C12F0D6FB281C01F0EDFE617845
:101A2000207809020143E278A378281C009122491A
:101A300012F0C8FB281C01F0DFFEA179637922793E
:101A4000281C00911D4912F0BDFB281C01F0D4FE9A
:101A5000A378013B1B061B0E0B2B17D8E378013B29
:101A60001B061B0E1E2B11D82379172B0ED863795A
:101A70003B2B0BD8A3793B2B08D8114B00221A70B3
:101A8000281C104912F09EFB281C08E0084C0C4B47
:101A900001221A70201C0C4912F094FB201C01F04A
:101AA000ABFE0A48FFF7B2FD01B030BC01BC0047F5
:101AB000FC5C00407F4D0300914D0300A84D0300E6
:101AC000E0500040BF4D0300CE4D0300E850004001
:101AD00010B5074C0749201C12F074FB201C01F0C4
:101AE0008BFE0548FFF792FD10BC01BC0047C046C5
:101AF000FC5C0040E24D0300E450004000B501F002
:101B0000C9FD024B586001BC0047C046340200408A
:101B100010B5094C0949201C12F054FB201C01F09F
:101B20006BFE00F05FF9002801D000F06BF9FFF7C1
:101B3000E5FF10BC01BC0047FC5C0040F64D030013
:101B400000B5054B0549586801F0AAFD002801D0F1
:101B5000FFF7DEFF01BC004734020040204E0000CA
:101B600000B5FFF7CBFFFEF7CDFFFEF7F5FD01BC9B
:101B70000047C04600B501F0AFFD024B586001BC04
:101B80000047C0463402004000B5FFF7F3FF01BC38
:101B90000047C04600B5FFF7EDFF0248FFF736FDEE
:101BA00001BC00474C4C004030B503061B0E0C1C1A
:101BB000642B48D0642B12D81E2B2CD01E2B07D898
:101BC000012B23D0002B00D187E00A2B7CD118E019
:101BD000222B2CD0232B30D0202B75D121E0842B2D
:101BE00043D0842B06D86E2B45D0822B37D0662B62
:101BF0006AD12EE0CA2B53D0DE2B5FD0C82B63D125
:101C000049E0002A69D1FFF7C5FF66E0002A64D1E8
:101C1000FFF75EFF61E0072A5FD1081CFFF7F4FEC3
:101C20005BE00A2A59D1081CFFF7E0FD55E00B2ABA
:101C300053D1081CFFF77EF94FE0022A4DD1081C52
:101C4000FFF7B0F849E0032A47D1081CFFF79EFDD3
:101C500043E0082A41D1081CFFF722F93DE0022A9F
:101C60003BD1081CFFF766FD37E0032A35D1081C7D
:101C7000FFF752F831E00B2A2FD9CB7A0C3393427D
:101C800003D1081CFFF7E8FC27E0154C1549201C80
:101C900012F098FA1EE0002A1FD1FFF7C7FC1CE0E3
:101CA000012A1AD10E4D1049281C12F08BFA281C5B
:101CB00001F0A2FD201CFFF78BFC0EE0DE2000F0FF
:101CC0007BF900F00BFA08E0054C0849201C1A1CAF
:101CD00012F078FA201C01F08FFD30BC01BC0047E7
:101CE000FC5C0040104E0300484E03005A4E0300B7
:101CF00000B5FFF73FFFFEF73BFD01BC0047C046C4
:101D000070B50A4C23680A4A051C0026D80F9A426F
:101D10007041084901F0D0FD2368074A990001335A
:101D20002E608D50236070BC01BC0047340200401F
:101D300023010000764E0300504C004000B50748D8
:101D4000FFF7DEFF0648FFF7DBFF0648FFF7D8FF87
:101D50000548FFF7D5FF01BC0047C0464C4C00408A
:101D6000E4500040E8500040EC500040044B054A6D
:101D70001A60054A5A60054A9A60054ADA60704757
:101D80003C000040252302001D210200DD2002004E
:101D9000C1200200044B054A1A60054A5A60054AF0
:101DA0009A60054ADA6070473C000040492E020004
:101DB000552E0200792E02004D2E02000048704779
:101DC000E054004000B5034BDB6800F02BF902BC87
:101DD0000847C0463C000040014B00221A60704793
:101DE000DC540040014B18687047C0463C0200407C
:101DF00000B5034B1B6800F015F901BC0047C04655
:101E00003C00004000B5034B5B6800F00BF901BCDF
:101E10000047C0463C00004000B5034B00221A605A
:101E200001F09EF901BC0047D854004010B50A4C9F
:101E30000A49201C12F0C6F9201C01F0DDFC084AFA
:101E400000231360074A1360FFF7E6FFFFF788FEE1
:101E500010BC01BC0047C046FC5C0040864E03003D
:101E60003C020040DC54004010B50A4B0A4C0122F1
:101E70000A491A60201C12F0A5F9201C01F0BCFCD4
:101E8000074B00221A60FFF7C7FFFFF731FF10BCB6
:101E900001BC00473C020040FC5C0040A64E030031
:101EA000DC54004010B51B4A1B4C1368E05401334E
:101EB00013608022920093420DDD184C1849201CBB
:101EC00012F080F9201C01F097FC164B5B6800F0C3
:101ED000A9F800201AE0032B17D9E278A1781202A2
:101EE0000A430432934210D10F4B1B68002B01D1DF
:101EF000FFF7BAFFE278A37812021A4320780B4961
:101F0000FFF752FE034B00221A60012010BC02BCF6
:101F10000847C046DC540040E0540040FC5C0040F0
:101F2000B14E03003C0000403C020040E45400403D
:101F300030B5094C00232360084BDB6800F072F8D1
:101F4000074BC5182368AB4203DAFFF79FF8002858
:101F5000F8D130BC01BC0047D85400403C000040E0
:101F600000FEFFFF10B50B4C2368002B0DDC01F0C9
:101F7000EFF8002809D0FFF7DBFF2368002B04D01F
:101F8000054B9B6800F04EF800E0002010BC02BC3E
:101F90000847C046D85400403C00004000B5054BFF
:101FA00000221A600020FEF765FDFFF7DBFF02BC90
:101FB0000847C046D8540040F0B5174B1B680006D0
:101FC00081B00F1C151C000E002B20D0134C226872
:101FD000FA23111D49199B00994218D8104E6946E1
:101FE000002308704B70B0184D80042212F060F886
:101FF000206804302060002D07DD2A1C3018391CB1
:102000000AF03CFA2368ED182560012000E000206A
:1020100001B0F0BC02BC08473C020040D85400406C
:10202000F05000401847C04600B501F055FB034B87
:102030001860002000F020FB01BC00474002004077
:1020400000B5FEF775FB09F0F9FCFFF779FD01F02B
:1020500077FF002801D109F095F901F077FFFFF72C
:1020600081FF01BC0047C04630B5114C11492068C2
:1020700001F016FB002811D060680A2112F084FBE1
:102080000D4D021C0D49281C12F09CF8281C01F073
:10209000B3FB01F021FB002320606360044B5A680E
:1020A00001325A60FFF7CCFF30BC01BC0047C0468C
:1020B0004002004010270000FC5C0040DC4E0300A2
:1020C00000B5054B002100201856002208230EF011
:1020D000DFFF02BC0847C0464C00004010B50C4C66
:1020E0002268002A01DC00200EE00A4B12040020C6
:1020F0001856120C084901230EF0CAFF00230020D5
:102100002360FEF7B7FC012010BC02BC0847C046A4
:10211000D85400404C000040F050004010B50B4C2B
:102120000B49201C12F04EF8201C01F065FB094BF6
:1021300000221A60084B002018560EF0B9FB030667
:1021400001D5FFF773FE10BC01BC0047FC5C0040EA
:10215000204F03003C0200404C00004010B5134BE0
:1021600000220020185612490FF05AFA02061216E1
:10217000002A09DA0F4C1049201C12F023F8201C09
:1021800001F03AFB00F05AFB0A4C0C49201C12F0FB
:1021900019F8201C01F030FB094B00221A60FFF7F0
:1021A0001BFEFFF739FE10BC01BC00474C0000408D
:1021B0006DFA0000FC5C0040374F03005B4F0300EA
:1021C0003C02004070B51D04FF2309061B06C91818
:1021D0000406090E161C24162D0C0A297CD8444B23
:1021E00089005B589F46002449E0424C4249201C2C
:1021F00011F0E8FF201C01F0FFFA0422311C3F48D7
:102200000AF03CF93E4B1D80FEF7CAF8FFF72CFEA2
:102210003C4B01221A6067E0364C3B49201C5EE0D3
:10222000201C00212A1C02E0201C00210022022385
:102230004DE0364B1B682F4D002B05D1281C34492F
:1022400011F0C0FF281C4DE03249281C11F0BAFFE4
:10225000281C01F0D1FA201C0021002204230EF0DA
:1022600017FF002840D0201C0021002282230EF0FE
:102270000FFF012039E0305DFFF714FE0134AC425E
:10228000F9DBFFF76FFE24E01A4C2349201C11F004
:1022900099FF201C01F0B0FA164C2049201C11F0C7
:1022A00091FF201C01F0A8FA164B00241C60FFF7D8
:1022B000BDFD0021042211480AF0D6F8104B1C8005
:1022C000FFF74CFF10E0201C0021002282230EF0BB
:1022D000DFFE431E984108E0064C1149201C11F016
:1022E00071FF201C01F088FA002070BC02BC084776
:1022F000F44E0300FC5C0040754F0300C8580040DA
:10230000CC58004064020040894F03003C0200406A
:10231000994F0300AD4F0300B94F0300CA4F0300AC
:10232000DC4F030010B50F4C0023E356013314D1EA
:102330000D4A10200A210FF0DDF90206120E22705C
:1023400012061216002A08DA084C0949201C11F05E
:1023500039FF201C01F050FA01E0FFF7FFFE10BC2E
:1023600001BC00474C000040C5210200FC5C00405D
:10237000EE4F030000B500F095FDFFF7CFFE0CF027
:1023800059FE01BC0047C04610B51049887A82B09A
:102390000A7A4B7A00900E4CC97A201C01910D49A3
:1023A00011F010FF201C01F027FA0121042000F099
:1023B0004DFB00F091FDFFF7B5FF01F09DFA00F035
:1023C000B9FD02B010BC01BC0047C046D458004063
:1023D000FC5C00401350030010B5214B1A78002A12
:1023E0000CD000221A700021042000F02FFBFFF710
:1023F000C1FF0FF057FF00200BF00CFE022000F091
:1024000065F9184C002819D01749201C11F0DAFE84
:10241000201C01F0F1F9154C1549201C04220AF08A
:1024200039F8002806D0083C237AA92B11D1637A09
:10243000FE2B0ED161200FF03BFF0AE00D49201C5E
:1024400011F0C0FE201C01F0D7F9612000210BF033
:102450008DFD034B01221A7010BC01BC0047C04621
:1024600048020040FC5C00402B500300DC58004058
:10247000048603004150030000B5FEF759F9FFF749
:102480005FFB01F05DFD002801D108F07BFF01F04A
:102490005DFDFFF767FD00F041FE01BC0047C0464F
:1024A000F0B5C0B0877B6C46384E62E0E378012B14
:1024B00004D0002B5DD0452B56D122E02379B92BD7
:1024C00015D0B92B02D8B82B53D116E0BA2B08D0AF
:1024D000DD2B4ED12E4B1A68062A4AD103221A60F0
:1024E00047E02A482B4911F06DFE28481CE0301CBB
:1024F000294911F067FE301C25E0244D2749281C8E
:102500001EE06379022B14D0022B02D8012B30D1AC
:1025100004E0032B11D0042B2BD117E01B4D2049D5
:10252000281C11F04FFE281C01F066F9FFF72CFF64
:102530001FE0164D1B49281C02E0144D1A49281CA7
:1025400011F040FE281C01F057F912E00F4D174919
:10255000281C11F037FE281C01F04EF900200BF06A
:1025600059FD00F06BF904E02279381C211C09F0B8
:10257000DBFD381C6946072209F0D6FD002895D1FD
:10258000FFF77AFF40B0F0BC01BC0047FC5C0040A4
:102590002C02004050500300685003007E5003009E
:1025A00095500300A3500300C7500300F2500300EE
:1025B000034A044B1A60044A044B1A607047C04631
:1025C000FC43151404C002E07000611C00C0FF3F12
:1025D0001D4A1E4B1A601E4A04331A601D4A0433FA
:1025E0001A601D4A04331A601C4A00231360043227
:1025F0001360043213600432136004321360043237
:102600001360043213601649164A116016492032CD
:1026100011601649CF2292000A60C022D2042031F4
:102620000A60134A1360703A13602032136020323C
:10263000136020321360203213600E4B19680122A0
:102640000A431A607047C04650800AC000C002E0CA
:102650003C40151405011550150000E010C002E0C3
:102660000000791C00C0FF3F00000C3840C0FF3F55
:1026700080C0FF3FA0C11FE0002804D0054B1A68AE
:1026800030218A4303E0034B196810220A431A6081
:102690007047C0460CC002E0084B1B680F209B0D22
:1026A00098430823184208D0C30701D5002004E04E
:1026B0004007800F002800D10120704734C0FF3F41
:1026C000014B18687047C0464C020040012803D0F7
:1026D000022805D0002008E0044B1B681B0D03E016
:1026E000024B1B6801205B0D9843704734C0FF3FCD
:1026F000014B18687047C046088000E00B4B1A6811
:1027000030218A4310210A431A60E43B19680422ED
:102710000A431A60064B02221A70064A0021116011
:102720000549643A116001221A707047A8C11FE080
:10273000048000E0708000E0401901000C4A0D4B5D
:102740001168194080235B010B431360E83A11685C
:102750008023DB030B431360074B02221A70074AE6
:1027600001235B421370064B04221A807047C04657
:10277000ACC11FE0FFCFFFFF040007E0000007E04F
:10278000140007E0094B02221A70094A0021116067
:102790000201101A0201101A064A400110600421B9
:1027A000043A118001221A707047C046040007E005
:1027B0000C0007E0180007E0024A012311781942D3
:1027C000FCD17047040007E00A4B02221A700A4A43
:1027D000002111600201101A0201101A074A40017B
:1027E00010600421043A118001221A7019781142F4
:1027F000FCD17047040007E00C0007E0180007E078
:102800000B4B02221A7004300A4A00218008116022
:102810000201101A0201101A074A40011060042137
:10282000043A118001221A7019781142FCD17047C4
:10283000040007E00C0007E0180007E000B5094BB2
:10284000FF221A6001220C331A60E0231B060322C8
:102850001A60054BAA221A6055221A60012000F066
:1028600045FFFBE7040000E0080000E0F0B50026AB
:10287000051C331C0420A8427341181C0C1C27495A
:10288000171C01F019F81F23A3427641301C24497C
:1028900001F012F8002F1ED0042D3BD8214BAD00C3
:1028A0005B599F460123A3401C1C1F4B31E00123B1
:1028B000A3401C1C1D4B2CE00123A3401C1C1C4BE3
:1028C00027E00123A3401C1C1A4B22E00123A34054
:1028D0001C1C194B1DE0042D1CD8184BAD005B5976
:1028E0009F460123A3401C1C154B12E00123A3406B
:1028F0001C1C144B0DE00123A3401C1C124B08E0D0
:102900000123A3401C1C114B03E00123A3401C1C0A
:102910000F4B1C60F0BC01BC0047C046E0510300F7
:10292000FE5103000851030018C0FF3F38C0FF3FAD
:1029300058C0FF3F78C0FF3F98C0FF3F1C510300C5
:102940001CC0FF3F3CC0FF3F5CC0FF3F7CC0FF3F5F
:102950009CC0FF3F00B5021C13210120FFF786FF3A
:1029600001BC004700B5012808D002280BD0002880
:102970000FD14A424A410220032108E04A424A411B
:102980000220042103E04A424A4102200521FFF7C8
:102990006DFF01BC0047C04600B500200021FFF7D5
:1029A000E1FF01200021FFF7DDFF02200021FFF7FA
:1029B000D9FF01BC0047C04600B50138052822D820
:1029C000124B80001B589F464A424A4101201B215E
:1029D00017E04A424A4101201C2112E04A424A4182
:1029E00001201D210DE04A424A410020162108E045
:1029F0004A424A410020152103E04A424A41002050
:102A00001021FFF733FF01BC0047C04630510300DF
:102A100010B50124201C00210134FFF7CDFF072C45
:102A2000F8D110BC01BC004700B5021C08210220EF
:102A3000FFF71CFF01BC004700B5424242410221A2
:102A40000220FFF713FF01BC0047C04600B54A4211
:102A50004A41052824D8134B80001B589F46032069
:102A60001A211BE000201B2118E000201C2115E08A
:102A70000120122112E00C4B5B68002B02D00020D9
:102A800004210BE00020132108E0074B5B68002BBA
:102A900002D00020052101E000201421FFF7E6FE0E
:102AA00001BC0047485103004C02004010B5041C13
:102AB000211C0420FFF7CAFF211C0520FFF7C6FFD9
:102AC000211C0120FFF7C2FF211C0220FFF7BEFFDF
:102AD000211C0020FFF7BAFF0320211CFFF7B6FFDF
:102AE00010BC01BC0047C046F0B5051C0223002005
:102AF0008EB0AB424041204900F0DEFE012D07D0F0
:102B0000022D07D0002D01D0002407E0022002E0B2
:102B1000012000E0002001F0E5FC041C174E6A1CB7
:102B2000301C1749231C11F04DFB301C00F064FED3
:102B3000144B09AA111C181CE0C8E0C102680A6005
:102B400002790A7114336A4661CB61C2A1CBA1C27A
:102B5000C0CBC0C21B886946138000235A008A5E1E
:102B6000944202D80133222BF8D109AA0EB0D05CCE
:102B7000F0BC02BC0847C0461B520300FC5C00408E
:102B8000305203006051030010B50120FFF74CFFE5
:102B900001F080FE041C0020FFF746FF201C10BC43
:102BA00002BC084710B50120FFF73EFF01F084FE8C
:102BB0000404240C00202404FFF736FF201410BC6A
:102BC00002BC084700B50120FFF72EFF01F08EFE82
:102BD0000020FFF729FF01BC0047C04670B5FFF792
:102BE000F7FCFFF7D9FE0020FFF726FF0020FFF7D4
:102BF0001BFF01F0A1FC00F085FDFFF709FF01F0CC
:102C000023FDFFF7DFFF01F057FC2F4B1A6830213F
:102C10008A4310210A431A60E43B1A6804210A43DC
:102C20001A602A4C2A4A022000252A4E107025607C
:102C3000643C266001241470274C284A26681640FC
:102C4000802252013243226080221C68D203224338
:102C50001A60234B234A187001235B421370224BE6
:102C60001980FFF719FD214CA560206000F0C2F823
:102C70001F4D061C012808D11E49281C11F0A2FA7C
:102C8000281C00F0B9FDA66006E0281C1A4911F0C6
:102C900099FA281C00F0B0FD144C0123E360206871
:102CA00000F072FA01F092FD012806D1134A144B8C
:102CB0001A60144A144B60601A600020FFF7F6FE99
:102CC00070BC01BC0047C046A8C11FE0708000E096
:102CD000048000E040190100ACC11FE0FFCFFFFFFE
:102CE000040007E0000007E0140007E04C02004089
:102CF000FC5C00403B52030058520300FC43151497
:102D000004C002E07000611C00C0FF3F7047C04675
:102D10000020704770B5061C0A1C041C062505E03F
:102D20002078112109F01AFB0134021C013D002D0D
:102D3000F6D17079012109F011FB70BC02BC084783
:102D400030B5074C211C051C0A310648FFF7E2FF8D
:102D5000201C09F0CFFB2870201C30BC02BC0847A7
:102D600050000040D658004000B5034803490422F3
:102D700009F084FB01BC0047D058004078520300A2
:102D800070B5154918220431041C09F077FB01F0D5
:102D90001DFD002803D0A01C01F0E8FC18E0122360
:102DA000A3703423E3705623237178236371662361
:102DB0005B42A371FFF770FC084D061C321C0849EA
:102DC000281C11F0FFF90F3E281C00F015FDE671DC
:102DD00070BC01BC0047C04678520300FC5C004058
:102DE0009452030000B50248FFF7CAFF01BC004738
:102DF000D4580040F0B5104D104829680268104BB7
:102E00000C240F1CA74314431E682F6004600D4858
:102E10001C682040186014331B68980301D50120FA
:102E200001E001204042044B196040331A60044B1A
:102E30001E60F0BC02BC08470CC002E04CC002E0BF
:102E400020C0FF3FFFFFFDFF7047C046FA20800013
:102E50007047C04610B5064C0649201C11F0B2F967
:102E6000201C00F0C9FCFEF7E1FF10BC01BC0047CC
:102E7000FC5C0040A252030000B5044B04481968F2
:102E800000F0FCFA012002BC0847C046D8540040BC
:102E9000F0500040024B00221A705A607047C04642
:102EA0005C02004010B5094C0949201C11F08AF958
:102EB000201C00F0A1FC074C002020560EF060FF03
:102EC00001235B42237010BC01BC0047FC5C004046
:102ED000C25203007000004010B5032210200F49B9
:102EE0000FF032F80E4B0206120E1A70120612166E
:102EF0000C4C002A04DA201C0B4911F063F907E09E
:102F00000A49101C0EF0C2FD201C094911F05AF9A3
:102F1000201C00F071FC10BC01BC00470130020015
:102F200070000040FC5C0040DB5203006DFA0000C2
:102F30000253030010B5064C0323237000F0CCFBB2
:102F4000FA239B00C018606010BC01BC0047C0465B
:102F50005C020040F0B58BB002AD6E232B720023F3
:102F6000061C6B72072218230F0405A81F496B81EA
:102F700009F084FA1E4B1B6807AC5A1E934109A83E
:102F80001C490422EB7409F079FA201C0021082264
:102F900009F06AFA18490622201C09F06FFAFFF7B7
:102FA0007BFB6B460933D8770020FFF79DFD6B460E
:102FB0000A33D8770120FFF797FD6B460B33D8779C
:102FC0000220FFF791FD03ABD8770C4B0020185679
:102FD0001C233F0C009361230193311C3A1C2B1CD2
:102FE0000EF07CFE0BB0F0BC01BC00471B5303008D
:102FF0003C020040C8580040D658004070000040D5
:10300000F0B583B0099F09061B041B0C3F04090E91
:10301000141C089D02933F0C012944D1244E2549DC
:10302000301C11F0CFF8301C00F0E6FB0B2F21D143
:103030002B78642B37D1EB78AA781B021343072B2C
:1030400031D1281D1C49072209F024FA00282AD171
:10305000A1780091E178227863780191301C1749BA
:1030600011F0B0F8301C00F0C7FB201C0299FFF7EC
:1030700071FF18E0042F16D12B78652B13D1EA7855
:10308000AB7812021A430ED1A1780091E178227830
:1030900063780191301C0A4911F094F8301C00F05B
:1030A000ABFBFDF7B9F903B00020F0BC02BC084748
:1030B000FC5C004023530300325303003A530300E7
:1030C0006753030000B5124B1A7B197A81B0D243C3
:1030D00068460A4302705A7B597AD2430A434270C7
:1030E0009A7B997AD2430A438270D97BDA7AC943B0
:1030F0000B1C1343C370074B1B781B061B16002BBE
:1031000002DB0549FFF726FF01B001BC0047C046BE
:10311000D4580040700000406DFA000010B50B4C10
:103120002378002B0ED0FA216068890000F0B8FAED
:10313000002807D0FFF7C6FF2378013B237000F07B
:10314000CBFA606010BC01BC0047C0465C02004086
:10315000014B18687047C046640200407047C04683
:10316000034B00221A605A609A60DA607047C046CA
:10317000EC580040034A7F2320305B429072D372A8
:103180007047C0467400004030B5224C81B02249DF
:10319000051C201C11F016F8201C00F02DFB08F077
:1031A000DBFD1E487F235B422035C372857208F029
:1031B000FBFD1B4A012004321A4908F00FF9812057
:1031C000002108F0DFF98220174908F0DBF91749E0
:1031D000052008F0D7F9164808F0EEF9154808F070
:1031E000F7F90023002201211620009308F03EFF8A
:1031F000162008F06FFF012008F020FA0E49201C6D
:1032000010F0E0FF201C00F0F7FA01B030BC01BC68
:103210000047C046FC5C004094530300740000402B
:10322000640200403D330200493402006D32020066
:103230003D3202005D310200A653030030B5094C57
:1032400005062D0E201C08492A1C10F0BBFF201C6F
:1032500000F0D2FAEB0601D5FDF7C2F830BC01BC94
:103260000047C046FC5C0040B953030070B50D4CEC
:10327000261C00060C36000E311C402208F0EAFA2B
:10328000E36CC318E364051C002405E0305DFEF721
:1032900009FE002802D00134AC42F7DB70BC01BC4F
:1032A0000047C04664020040F0B51D4D2B6D061C62
:1032B0000F1C98421ED01B4C002809D01A49201C14
:1032C00010F080FF201C00F097FA01236B650FE0DF
:1032D0001649201C10F076FF201C00F08DFA012307
:1032E000AB65134B1E605E609E60DE60FEF78AFD7C
:1032F0000B4B1E650A4B1B689F420ED0094C002FDA
:1033000002D0201C0B4901E00B49201C10F05AFF91
:10331000201C00F071FA024B1F60F0BC01BC00479A
:1033200064020040FC5C0040CD530300E553030001
:10333000EC5800400054030017540300F0B52D4C26
:1033400082B0051C0F1C161C2B494278201C10F063
:1033500039FF201C00F050FA6B78212B28D0222B4B
:1033600033D0202B01D000203FE02449201C10F056
:1033700029FF201C00F040FA214D281C316807224B
:10338000543010F095FE07233B60291C5931097811
:103390002B1C58336A6D1B7800915A352978201CF4
:1033A0000191184910F00EFF201C00F025FA1BE0D7
:1033B0001549201C10F006FF201C00F01DFA104BD0
:1033C0005433336007233B600EE010496A88201CA9
:1033D00010F0F8FE201C00F00FFA6B88012002218B
:1033E00018401940FFF760FF012002B0F0BC02BC9A
:1033F0000847C046FC5C00403F54030051540300A2
:10340000F4000040625403009E540300AF540300D4
:1034100030B50B4A93685568ED1A402D00DD402504
:10342000074C21682A1CC918822008F0C1F9054BF5
:10343000DA6DE560AD18DD6530BC01BC0047C04603
:10344000EC5800406402004000B50B4B9968DA6804
:10345000586851189960814209DB3F2A07DC002235
:103460001A605A609A60DA60FEF798FD01E0FFF793
:10347000CFFF01BC0047C046EC58004070B50B4C74
:103480002368051C0E1C58425841094900F014FAE3
:10349000002325606660A36000F01EF9054B1866E6
:1034A000FFF7B6FF70BC01BC0047C046EC580040B7
:1034B000CA5403006402004000B50649402282203D
:1034C0005C3108F075F9044BDA6D4032DA6501BC05
:1034D0000047C046F40000406402004000B5034BC2
:1034E00000225A66FFF7E8FF01BC00476402004073
:1034F00070B5822008F0FCF86023061C1E402CD119
:103500001F4D6B68002B28DD1E4C206E00F0C4F8A8
:10351000002803D100F0E0F820661EE0FA21206EBA
:10352000490000F0BDF8002817D000F0B3F820667D
:10353000154C1649201C10F045FE201C00F05CF9CB
:103540001349201C10F03EFE201C00F055F92E609F
:103550006E60AE60EE60FEF755FC0120FFF7B6F836
:10356000084B002807D09A6E002A05D101229A66DE
:10357000FFF7B4FF00E0986670BC01BC0047C0468E
:10358000EC58004064020040FC5C0040EF54030033
:103590003055030000B5044982200C31402208F068
:1035A00007F901BC0047C04664020040F0B5807BCB
:1035B000194D83B0009001AC2F1C22E0E378012B61
:1035C0001FD12379FC2B0AD0FE2B02D0FB2B18D164
:1035D0000FE0381C114910F0F5FD381C04E0281CE0
:1035E0000F4910F0EFFD281C00F006F9FEF7F4FE7D
:1035F00007E0094E0B49301C10F0E4FD301C00F0D0
:10360000FBF80098211C052208F08EFD0028D5D17A
:1036100003B0F0BC01BC0047FC5C00405155030006
:103620005E5503006A55030070B50E4B1B789A0671
:1036300014D50D4B10221D680C4C5B680C480D49CD
:1036400006E0E65C013306708B4200DD0023013AA0
:10365000AB4201D0002AF4DC034A536070BC01BCC9
:103660000047C04614C000E0D0020040FC580040B3
:1036700000C000E0FF03000000B5054B1A680E23F0
:103680001340022B01D1FFF7CFFF01BC0047C0461A
:1036900008C000E000207047431E98417047C046B4
:1036A00030B5041C002813D00D18FFF721F8A542EF
:1036B00006D2A0420CD20024A8426441201C08E09B
:1036C000A84201D3012004E0A0428041404200E032
:1036D000002030BC02BC084700B5FFF709F80028FD
:1036E00001D10120404202BC0847C04610B5041C6D
:1036F000FEF7FEFF0419FEF7FBFFA042FBD310BC50
:1037000001BC004700B5144B196808220A431A602F
:10371000E433196840220A431A60104980235B424F
:103720000B700F4B27221A700E4A002303201370D0
:10373000087007200439087081B00221116006204A
:1037400000930022084B08F091FC062008F0B8FC1A
:1037500001B001BC0047C046C4C01FE00CC000E07F
:1037600000C000E004C000E079360200F0B5041C9F
:10377000002010F0F5FF0C4E051C0C4B0C4F0020E8
:1037800007E019687A544A1C1A60B24200DD1860DA
:1037900001342278002AF4D1FFF746FF281C10F0EC
:1037A000DFFFF0BC01BC0047FF030000D002004077
:1037B000FC580040F0B5061C0F1C00240B4D08E01F
:1037C000325D0B49281C10F0FDFC281CFFF7CEFFD2
:1037D0000134BC42F4D3281C064910F0F3FC281C29
:1037E000FFF7C4FFF0BC01BC0047C046FC5C0040D2
:1037F000755503007A55030030B5037885B0051C74
:10380000002B19D0FEF774FF0D49021C684610F01A
:10381000D9FC6846FFF7AAFF0A4C201C10F040FCB8
:103820002018013803780A2B03D1201C064910F018
:1038300095FC281CFFF79AFF05B030BC01BC00477F
:103840007D550300FC5C00407B55030070B5021CF5
:10385000154C002804D0201C144910F0B3FC03E0E0
:10386000201C134910F0AEFC201CFFF7C5FF114EC1
:10387000012400250420211CFFF7E8F80520211C65
:10388000FFF7E4F80120211CFFF7E0F80220211CDB
:10389000FFF7DCF801350020211CFFF7D7F8B5420F
:1038A000E8D101235C40E4E7FC5C00408255030062
:1038B0008D5503001027000000B5002802D1081C18
:1038C000FFF7C4FF01BC00470006000E072801D91E
:1038D000064B06E0064B8000C35802E00A70013335
:1038E00001311A78002AF9D1081C70479401004070
:1038F000D05503000120704700B581B050230093DC
:1039000004480549054A03230BF0ACFB01B001BC98
:103910000047C046493A0200F5380200213902004A
:1039200030B50904151C002971D10378493B1B06E9
:103930001B0E0D2B6BD8384A9B00D358374C9F4633
:10394000211C37480CF036FC03E03648211CFFF7F9
:10395000E1F9041B2C805AE0211C32480CF066FC73
:10396000F7E703232B804278322A14D02E4B332AD8
:1039700024D02E4A9B5C072B01D92D4A02E02D4A08
:103980009B009A58254B02E01970013201331178DF
:103990000029F9D123E0284B234AD35C072B01D916
:1039A000234A02E0234A9B009A581C4B02E01970FC
:1039B0000132013311780029F9D110E01F4A9B5CD4
:1039C000072B01D91A4A02E01A4A9B009A58134B56
:1039D00002E019700132013311780029F9D10F4A40
:1039E0009B1A2B8013E01649201C10F077FB201C3B
:1039F00010F056FB21180B48FFF78CF903E0201C50
:103A0000104910F06BFB201C10F04AFB2880034883
:103A100030BC02BC0847C04698550300D80200409D
:103A2000DC580040D658004064070040F4160000FF
:103A300094010040D0550300EC2D0000E444000048
:103A40002070030042480300F0B5154E05062D0E08
:103A50000F1C141C301C13492A1C10F0B3FB301C23
:103A6000FFF7CAFE002D01D0002016E0381C0E49D9
:103A7000082210F087FB002808D10C4B203323606C
:103A80000B4B5B6823610923A37704E0094B236098
:103A9000094BA577236102204042F0BC02BC0847D5
:103AA000FC5C00403E7003004E700300D0550300E4
:103AB00094010040E46C03003A030000F0B5314B80
:103AC0001A6831499000415807394F424F4182B03E
:103AD0002E49002F07D058682D4C0138231C434332
:103AE000C918002304E02A4C201C50435B680918C5
:103AF0002848061C5E438C1938346578002D1ED08A
:103B000038368E19F01C002F02D0043D6570F01D70
:103B1000204D2C1C5C43091938314C781E490D6826
:103B2000AC420CD14D68002104E0475C6E5CB742AA
:103B300005D10131A142F8DB0124184901E01849FF
:103B40000024184D013201330091281C164910F051
:103B500039FB281CFFF750FE211C0120FEF776FFE1
:103B6000124A118801AB198092789A70054A12683E
:103B70000121985C6140FEF769FF02B0F0BC01BC16
:103B80000047C04614030040085E00406407004040
:103B9000F8160000B40500009C010040D47003003A
:103BA000D7700300FC5C0040DB700300B4700300BE
:103BB000F0B50E4C0E4BE7180E4B0025E6180E4BD9
:103BC000181C68431C3020180021FCF733FF022327
:103BD0003370094B0135F618042DF0D1074BE4186A
:103BE000BC42E9D1F0BC01BC0047C04664070040BC
:103BF000E84400004E040000B4050000F816000080
:103C000070B50A4E051C041C201CFEF76DFFA300B6
:103C10009851002805D10134022C00DD0024AC426B
:103C2000F2D1201C70BC02BC0847C046085E0040B0
:103C3000F0B587B01D4801AA031D111C70CB70C1DF
:103C40001B680B60031C05A91433194E194F30CBA8
:103C500030C10024201CFEF747FF3060072802D93E
:103C60003C2200920AE0430004336D465B5B009304
:103C700005AB1A5C104B1A5507280CD000250F4ACB
:103C8000101C68431C30381800991B220135FCF7C2
:103C9000A5FE042DF3D10A4B01340436FF18032C82
:103CA000D8D107B0F0BC01BC0047C046B4700300D7
:103CB000085E004064070040145E0040B405000048
:103CC000F816000030B582B000F04CFA124C134DDB
:103CD0002268636801321249281C10F073FA281C0C
:103CE000FFF78AFD0F4B19782068227900915B68F5
:103CF00002210193012300F0BDFA002808D12268B7
:103D0000281C0132084910F05DFA281CFFF774FDE9
:103D100002B030BC01BC004714030040FC5C004012
:103D2000047103009C0100402B710300F0B5174C97
:103D3000174A21680B1C5343164A6168D318A068C0
:103D4000154A071C5743101C48431A1800213832E3
:103D5000124D517018182A681C373B30DF1910F0CB
:103D6000B3F90F4E2268A36801320133301C0D49AC
:103D700010F028FA301CFFF73FFD69682A68381CEC
:103D8000FCF79CFDF0BC01BC0047C046140300409A
:103D9000F816000064070040B40500009C010040D4
:103DA000FC5C00404D71030010B51D4BDB6981B018
:103DB00000931C4B19681C4A88008258072A01D1BD
:103DC00004229A60174B9A6801329A60032A0BDD2D
:103DD000002201319A601960022900DD1A60114C3D
:103DE0002068FFF70DFF20600E4C20680E4B82000C
:103DF000D358072B0CD100F0CFF960600B4C021C9C
:103E00000B49201C10F0DEF9201CFFF7F5FC03E045
:103E1000A3686A46D35C636001B010BC01BC004774
:103E2000B470030014030040085E0040FC5C0040D6
:103E30007471030010B5041C00F078F9437F002B67
:103E400002D1201C00F046FA10BC01BC0047C0465D
:103E5000F0B5104A131C43430F4CE4180F4B1D1CC4
:103E60004D432F1C1C37E719381CFCF701FDC30715
:103E70000DD565192E1C38367478FC2C07D8381CE3
:103E8000FCF7D6FC2D1938350134E8707470F0BC9D
:103E900001BC0047F816000064070040B4050000AC
:103EA00070B5234E234C00253368072B0CD12068B6
:103EB0000821FFF7F5FB002816D0281CFFF7BAFFF2
:103EC000FFF70AFC20600FE0281C0021FFF7C0FF6D
:103ED000281C0121FFF7BCFF281C0221FFF7B8FFB7
:103EE000281C0321FFF7B4FF013504360434032DE9
:103EF000DAD1114C114A2368E068D15CFFF7D0FB9E
:103F0000002812D0FFF7DAFDFFF74EFF2268084BBA
:103F10009200D358072B02D1FFF7D4FE01E0FFF740
:103F200005FFFFF7D9FB044BD86070BC01BC00470C
:103F3000085E0040FC5D004014030040145E004039
:103F400000B50120FEF7C2FB02BC084710B5FFF721
:103F5000F7FF3E4B002868D01B7C062B73D83C4AE9
:103F60009B00D3589F46394C01232374FFF7B4FBC1
:103F7000E060FFF7B1FB374B986058601860012094
:103F8000FEF77AFB0120FEF791FD5CE02F4CFA2151
:103F9000E0680901FFF784FB002854D00020FEF7F9
:103FA00085FD02230DE00020FFF72AFE274C0023A9
:103FB000A360012363602060FFF7F6FEFFF738FE81
:103FC000032323743FE000F04BFA234C021C2349E7
:103FD000201C10F0F7F8201CFFF70EFC04220AE06A
:103FE00000F0E8F91C4C1E49201C10F0EBF8201CD6
:103FF000FFF702FC0522154B1A7424E000F0B2F81A
:10400000124B1A68174B9200D358072B02D1FFF7B7
:1040100059FE01E0FFF78AFEFFF75EFB0B4B06221D
:10402000D860E9E7FFF73CFF0DE01A7C002A0AD0D0
:10403000187400210120FEF709FD02200021FEF77F
:1040400005FDFFF7B5FD10BC01BC0047140300409F
:1040500098700300FC5D0040FC5C00408771030029
:1040600099710300085E0040F0B5274C85B02749E0
:10407000201C10F0A7F8201CFFF7BEFB0122244FE4
:10408000019203923E1C0024224A131C63431C33FA
:10409000FB18181C0293FCF767FCF062002801D1A2
:1040A000002303930134002801D11B4B00E01B4B7C
:1040B000154D1B49019A0093281C231C10F082F80F
:1040C000281CFFF799FB0298FCF7B2FB04900298BA
:1040D000FCF7CEFB1349021C049B281C10F072F85D
:1040E000281CFFF789FB0B4AB618042CCCD1019B86
:1040F0000D4A01330193BF18042BC3D1039805B0B7
:10410000F0BC02BC0847C046FC5C0040B071030034
:1041100064070040B4050000C3710300D4700300BD
:10412000CB710300E2710300F8160000034A131C70
:1041300043430348C0181C307047C046F8160000BF
:1041400064070040054A131C4343054AD218111C5A
:10415000002339313B320B7013707047F8160000A2
:104160006407004010B5094B094A181C0C300021A7
:104170001C68072C01D111709170064C0433121980
:104180008342F5D110BC01BC0047C046085E004028
:104190009D070040F8160000431C074A07E0022B69
:1041A00000DD002399008958072902D0013383429A
:1041B000F5D1581C7047C046085E004010B5029CFF
:1041C0002406240E42708370C47001700399221C6F
:1041D00004300FF06DFF201D10BC02BC0847C04624
:1041E000F0B585B00193029204AB01221A70019AD6
:1041F0005970511E8A419A7003AA002313700A9ABB
:10420000071C002A00D0137003AC04AD0323221C4A
:10421000381C291C009300F0F1FA22787F23134008
:10422000022B01D0002020E0A378002B01D1002533
:1042300000E06D7804AB9B78002B01D1002403E0F3
:1042400003AB5C78002C01D1002D0DD00820FFF7C6
:104250004DFA381C0299019A231C009500F0CEFA01
:10426000002C01D00A9B1C70012005B0F0BC02BCE0
:104270000847C046F0B5134E051C341C6C4382B091
:104280000798114E0006114F000E3419009008983F
:10429000E619090612061B060190090E301C120EC3
:1042A0001B0EFFF78BFF0A4B0106090EE154281C79
:1042B0000023321C0093FFF793FF02B0F0BC02BC56
:1042C0000847C046F8160000640700404703000096
:1042D00045030000F0B5154A131C4343144EF6186D
:1042E000341C002339343B362370337081B00021F5
:1042F0000022331C051C0094FFF772FF002810D029
:104300002378002B0CD00B4F0B496A1C381C0FF084
:1043100059FF381CFFF770FA2178301CFFF74AFA72
:10432000012001B0F0BC02BC0847C046F8160000EE
:1043300064070040FC5C004003720300F0B5194ABA
:10434000131C4343184F82B0FF18041C0191FFF760
:10435000C3F93D1C0090393500263B3708202E70EC
:104360003E70FFF7C3F9201CFFF7B4FF002804D00C
:104370002B78002BF2D101200FE000980199FFF774
:104380008FF90028EAD0094D621C0949281C0FF05A
:1043900019FF281CFFF730FA002002B0F0BC02BC65
:1043A0000847C046F816000064070040FC5C004067
:1043B0001E720300F0B584B0244D254E012403AFD6
:1043C000631E02932B68072B37D1FA21029849000C
:1043D000FFF7B4FF012830D11E49221C301C0FF01A
:1043E000F1FE301CFFF708FA02233B7008207C70B6
:1043F000FFF77CF90223009302980221221C7B2301
:104400000197FFF737FF002808D07A783B78301CF7
:1044100000921149221C0FF0D5FE04E0301C0F4918
:10442000221C0FF0CFFE301CFFF7E6F90820FFF743
:104430005DF902986421FFF781FF01340435042CF3
:10444000BED104B0F0BC01BC0047C046085E0040CD
:10445000FC5C00403F720300677203008C72030033
:10446000F0B5114C114E012500272368681E072B5B
:1044700011D1FA2149000137FFF760FF002802D16E
:10448000301C0B4901E00B49301C2A1C0FF09AFE2E
:10449000301CFFF7B1F901350434042DE5D1381C87
:1044A000F0BC02BC0847C046085E0040FC5C00400F
:1044B000BA720300F3720300074A802311685B019C
:1044C0000B431360E4321168C0239B040B43136059
:1044D000024A034B1A607047C4C01FE0010120006C
:1044E000004003E00006000E07281CD80F4B1A6896
:1044F000FF218A431A608022196852040A4301216D
:1045000081400A431A600A4A80008318186800280C
:10451000FCDA064B074A19680A401A60430002D4C5
:104520000004800D01E0012040427047004003E09C
:10453000104003E0FFFFFFF810B5124A8023116816
:104540005B000B4310481360002303800F4B10499E
:104550001C680C4080214902214319600D49122436
:104560000C702021018080211068C9000143116076
:10457000094A19681140802252030A431A6010BC8C
:1045800001BC0047C4C01FE0000002E0A8C11FE05A
:10459000FFFFFCFF0C0002E0FFFFCFFF002803D06D
:1045A000044B12221A7003E04C23024A5B42137040
:1045B0007047C0460C0002E0F0B5002914D00C4A48
:1045C0000C4D1378141C00237F260BE0C75C2F8052
:1045D000177817783F06002FFBDA277837402770C7
:1045E0002F8801338B42F1D3F0BC01BC0047C04699
:1045F000040002E0080002E070B50023084AFF252D
:10460000084C07E0158026783606002EFBDA16885F
:10461000C65401338B42F5D370BC01BC0047C04681
:10462000080002E0040002E0064BFF221A80043B6F
:104630001A781206002AFBDA024B18880006000ED0
:104640007047C046080002E0134A80231168DB006F
:104650000B431360E4321168104B194080235B0355
:104660000B4313600E4B12221A600E4B1A681A602D
:104670001A681A6004331A681A600B4B00221A6019
:10468000196807220A431A60196880220A431A60CF
:10469000022204331A607047C4C01FE0FFFFCFFF3F
:1046A000100003E000C002E0000003E0064BFF2220
:1046B0001A60064A102311681942FCD1024B18688F
:1046C0000006000E7047C046080003E00C0003E03F
:1046D000054B0006000E054A1860102311681942A8
:1046E000FCD1014B1B687047080003E00C0003E09D
:1046F000F0B50024104E09E0055D104F3D603768AD
:1047000010252F42FBD10D4F3F6801348C42F3D36B
:104710000021094C102009E0084DFF262E60256875
:104720000542FCD1054D2D68555401319942F3D312
:10473000F0BC01BC0047C0460C0003E0080003E0E9
:10474000F0B50D1C041C0120161C1F1CFEF774F98B
:10475000291C201CFFF730FF301C391CFFF74CFFD1
:104760000020FEF769F9F0BC01BC004770B5164B9C
:1047700083B01B8802AE051C338004E003B0012027
:1047800070BC02BC0847301C02212A1C0623FFF71C
:10479000D7FF301C02216A460623FFF7D1FF281CF1
:1047A000694606220FF0A2FC0028ECD1301C022141
:1047B0006A460623FFF7C4FF281C694606220FF04D
:1047C00095FC0028DFD1D9E71C73030010B582B037
:1047D00001A8052303706C46012303345B42237058
:1047E000221C01210123FFF7ABFF22780323134092
:1047F00002B05842584110BC02BC0847F0B582B024
:104800000090079D00201F060E1C141CFFF7C6FE1B
:1048100000980121FEF7A6F82D061C4B2D0E3F0E29
:104820001B782B1CBD4200D23B1C1B061B0E0193A8
:104830000022174B15491AE0AA4202D9FF2018801E
:1048400002E037781F8001360F780F783F06002F7F
:10485000FBDA0E4F3F787F2038400C4F3870002C29
:1048600001D11F8802E01F882770013401320198AE
:104870008242E1D300980021FEF774F80120FFF78F
:104880008DFE02B0F0BC01BC0047C046040002E04F
:10489000080002E010B581B068466C46033002346F
:1048A000032303700121221C0123FFF721FF01B024
:1048B000207810BC02BC084710B581B068460330B0
:1048C00002236C460370002323706370A3706A4652
:1048D00001210223FFF70CFF2078637800069B0973
:1048E00001B08015C01810BC02BC084700B581B0EB
:1048F000802368465B42037000234370022100223C
:10490000FFF7F6FE01B001BC0047C04600B581B01C
:10491000C9066B46090E03331970012802D1022023
:1049200001431970002A06D06A46033211788023A9
:104930005B420B431370684603300121FFF73CFED6
:1049400001B001BC0047C04610B581B06C460334CD
:10495000002301222370FFF7D9FF201C0121FFF75C
:104960004BFE01B0207810BC02BC084730B51D1CBE
:10497000141C0022FFF7CAFF291C201CFFF71CFE95
:1049800030BC01BC0047C0467047C0467047C046B7
:104990007047C0467047C04610B5D02102060906D0
:1049A00050180023000E09211C1C81425C41BF21CC
:1049B00009065218120E0521201C91425B41184332
:1049C00010BC02BC0847C046064B00061A88000E01
:1049D0005040FF21084004494000415A120A4A4011
:1049E0001A807047205E004010740300064B0006DA
:1049F0001A68000E5040FF21084004494000415A07
:104A0000120A4A401A607047185E00401076030090
:104A100010B5094900060B68000E5840074B4000CE
:104A2000C25A074B1868140A60400860FF210A4008
:104A30001A6010BC01BC0047245E004010760300E1
:104A40001C5E00408022030692059B181B0E092263
:104A500000209A424041704770B5051D0F2402782E
:104A6000131C20331B061B0E092B16D843781E1C63
:104A700020363606360E092E0FD822401B0113436E
:104A80001B068A791B0E9A4200D08B710131A84215
:104A900001D1012002E00230E1E7032070BC02BC3A
:104AA0000847C04610B5041C0298002B36D1002AD6
:104AB00001D1062039E04B7A002B14D1A7225200F5
:104AC000A25C037801325A400F20024028D11B0912
:104AD000092B02D08A71CA710A724A799A4221D08E
:104AE0004B71012021E0602B02D1052A1CD922E064
:104AF0000378FF2B14D1012A16D98318013B1B78A8
:104B0000F02B11D10B2A01D00D2A0BD10123934296
:104B100008D2C45C0133F92CF9D10BE0042004E085
:104B2000032002E0022000E005200004001410BC75
:104B300002BC0847C018FFF78FFF0004000CF4E721
:104B40000099019A002901D0042019E0002B01D11D
:104B5000062015E00B49415C002902D099420ED88D
:104B60000BE01178FF2901D0032009E0012B06D9C1
:104B7000D318013B1B78F02B01D1002000E0052069
:104B80007047C04651010000009A002A01D004205D
:104B900008E0054A825C002A03D09A4201D800202E
:104BA00000E005207047C046510100000378002B4B
:104BB0002AD14378002B27D1C378DB431B068278A8
:104BC0001B0E9A4220D14379DB431B0602791B0E50
:104BD0009A4219D1C379DB431B0682791B0E9A4294
:104BE00012D1437ADB431B06027A1B0E9A420BD189
:104BF000C37ADB431B06827A1B0E9A4204D1037BE5
:104C0000FF3B5842584100E000207047F0B582B0A9
:104C1000079C002B6FD1002A01D1062070E0012AE9
:104C20006BD90123E356002B02DA042A63D864E02F
:104C3000102A62D9344B01256D42971E1D800097C2
:104C4000002513E01E880196675D7740FF263740F8
:104C50007F00BC46019F3F0A01972C4F6646F65BDA
:104C6000B446019E67467E401E800135009EB542D7
:104C7000E8D1A218951E2E781D881B789E423AD145
:104C8000013A12782B0A9A4235D1A7235B00C35C04
:104C9000227801339A4232D16378042B2FD1A37842
:104CA0000C2B2CD1A27B1F231340227BD70703D5CB
:104CB000402213431B061B0EE278487A904210D123
:104CC0000D7A207985420CD1CD796079854208D161
:104CD0008D79A079854204D14879984201D102208A
:104CE0000EE04A7222790A726279CA71A2790120B1
:104CF0008A714B7104E0042002E0052000E00320EB
:104D000002B0F0BC02BC0847205E004010740300F3
:104D1000009A002A01D0042015E0002B01D10620C2
:104D200011E0012B0CD9019A527812061216002AB2
:104D300002DA042B04D905E0034A825C934201D2D3
:104D4000052000E00020704751010000F0B581B05F
:104D50000698002B4BD1002A01D106204CE0012AF5
:104D600047D90123C356002B02DA042A3FD840E07A
:104D7000062A3ED9224B01246442971E1C800097CC
:104D800000240BE01D88065DFF276E403E401D4F4E
:104D90007600F75B2D0A7D401D800134009DAC42FA
:104DA000F0D18218941E25781C881B789D421ED154
:104DB000013A1278230A9A4219D102788B799A42E1
:104DC00019D14378042B16D18378022B13D1C278E2
:104DD00000790F231201034013431B064A791B0E6F
:104DE0009A4201D1022007E04B71012004E0042027
:104DF00002E0052000E0032001B0F0BC02BC08473F
:104E0000205E00401074030070B5049C002B3CD160
:104E1000022A01D8052039E0032A36D14B792578BA
:104E2000FF2B12D1A7225200825C0132D200072050
:104E30000243954229D1A07862781B1A9A4224D164
:104E400002235B428A714B711AE0A7267600805DCF
:104E50000130C00001260643B54202D0024395420C
:104E600013D1A078FF256278281A82420DD1FE2B3B
:104E700000D1CA716278BF2313404A799A4201D1A6
:104E8000022003E04B71012000E0042070BC02BC52
:104E90000847C046F0B582B0079C002B28D1042AF1
:104EA00001D8052027E06578A27823782E1C56408B
:104EB0005E402779B446E678009767467E40B44660
:104EC000009E664514D1062B14D1A7235B00C35C5A
:104ED000AB420FD14B79FF2B04D08B79934201D198
:104EE000022008E000234B71A37801208B7102E0BF
:104EF000042000E0032002B0F0BC02BC0847C0461A
:104F000030B50398049A00285DD10978B42901D0FE
:104F1000062018E0012B58D9022B07D11378013B4A
:104F20001B061B0E012B50D8537808E0032B09D128
:104F30001378013B1B061B0E012B46D89378032BDD
:104F400043D144E0082083423FD3B4290BD15078A9
:104F500000090D380006000E012801D900200BE0E1
:104F60001478013C02E0147824090D3C2406240E38
:104F700000200125A5424041002824D0013BB4294E
:104F80000ED1D11801390978A02906D0507800092E
:104F90000E280ED109090E290BD1D25C033A0DE07F
:104FA000D35CA02B01D101230AE0127812090E2A4A
:104FB00001D0002304E01B091A1C0E3A534253414E
:104FC000002B04D101E0042002E0052000E00020D5
:104FD00030BC02BC0847C04670B50C78261C04984B
:104FE000B43E75427541455DB42C01D0012600E008
:104FF0000326002B54D1B24201D2052051E0B42C3B
:1050000005D10378012B4BD18378032B48D12B0991
:105010000E2B45D14B79002B01D1022002E0002359
:105020004B7101208A790F242B1C23401440013C32
:10503000042C36D81C4DA4002C59A7460A7A0F24FC
:105040001440A3422DD01209120113430B7212E037
:105050000A7A1409A34224D00F201B0102401A43EC
:105060000A7208E04A7A0F241440A34219D01209A8
:10507000120113434B72012013E04A7A1409A34230
:105080000FD00F201B0102401A434A72F3E71409A4
:10509000A34206D00F201B0102401A438A71EAE79F
:1050A000042070BC02BC084720730300002304E006
:1050B0000133052B01D1002302E0C25C162AF7D090
:1050C000181C7047002302E00133052B07D0C25C97
:1050D000162AF9D0002B02D0C318587800E000201F
:1050E0007047C04610B5031C002202E00132052AB9
:1050F0001BD09C5C162CF9D0101E19D001308842B0
:1051000002DB0120404213E0203C2406240E5E2CEA
:105110000BD89B185B78022B09D0182B07D0012BDA
:1051200005D0062B03D0152B01D0002000E0101C69
:1051300010BC02BC0847C046032901DC002005E082
:10514000411803390B78033B584258417047C04619
:1051500030B5141C039D002B1DD1002A01D106205F
:105160001EE0281C111CFFF7BDFF002813D00028EB
:1051700013DB2B185B78013B1B061B0E012B0ED893
:10518000023C241A032C08DD2C192018013803785E
:10519000032B02D103E0042002E0052000E0002000
:1051A00030BC02BC0847C04600B581B0039A0092EB
:1051B0001A1C029BFFF7CCFF01B00004001402BCD4
:1051C0000847C04670B581B0059E051C0C1C0096B2
:1051D000FFF7BEFF0004000C002825D16379FF2BE8
:1051E00001D0022001E060710120002302E00133C0
:1051F000052B18D0F25C162AF9D0002B13D0F61824
:105200007378062B0BD0062B02D8022B0BD104E0AF
:10521000152B04D0182B06D106E0002300E0012353
:105220002B71072000E0042001B00004001470BCC2
:1052300002BC0847F0B51C1C059B069E012B2ED80E
:10524000A7235B00C55C01350A21281C0FF09CFADE
:105250000A210FF091FA0A210701281C0FF08CFA9D
:105260000023074300E00133A34202D2F25CBA42BA
:10527000F9D1A34215D2022C13D9F11848788442EF
:105280000FD90022C01803E00C78013362400131CD
:105290008342F9DB335C934201D1002002E0042019
:1052A00000E00520F0BC02BC0847C046F0B581B064
:1052B0000C1C161C069D012B01D9042060E0A723BD
:1052C0005B00C75C01370A21381C0FF05DFA0A2128
:1052D0000FF052FA000100900A21381C0FF04CFA2E
:1052E000009A0023104300E00133B34202D2EA5C8B
:1052F0008242F9D1B34240D2022E3ED9581C28181E
:1053000000900778BE4238D9EE18191C0022FF1809
:1053100003E03078013142400136B942F9DBE95D02
:1053200091422CD1E918CE7866723209009E30780D
:10533000092817D9607990420BD1A679C87986429D
:1053400007D1E679087A864203D1207A497A8842E1
:1053500008D06271ED18EB79A3712B7AE3716B7A47
:10536000237208E06379FF2B02D10023637102E00E
:10537000934204D06271012002E0052000E0022087
:1053800001B0F0BC02BC084730B503060A4C1B0E46
:1053900000220125181C48404908284200D06140DD
:1053A00001321004020C0014082801D05B08F1E758
:1053B000081C30BC02BC084701A00000F0B5031C6B
:1053C000012700200C4E11E01A780024151C4540DE
:1053D00040083D4200D07040013425042C0C2D14AF
:1053E000082D01D05208F1E7013901330029EBDC27
:1053F000F0BC02BC0847C04601A00000012B19D830
:10540000062A19D90B78FC2B14D14B78FC2B11D11F
:105410008B78FC2B0ED1CB78343B1B061B0E012B5B
:1054200001D80B2A08D9064BC35C002B06D09A4240
:1054300004D201E0042002E0052000E000207047D3
:1054400051010000F0B5069D1A1C0F1C1E1C291CE2
:10545000059B041CFFF7D2FF0004000C002826D196
:105460003B789D2B01D0972B21D1231CFC331B6E45
:105470000136114A5E703604B3181B14013B310C1F
:10548000EB18002202E01E785E70013B01328E1A9A
:105490003604002EF7DC3B789D2B04D1A7235B005C
:1054A000E35C5B0802E0A7235B00E35C2B70000475
:1054B0000014F0BC02BC08470000FFFF70B5049C5C
:1054C0000D1C211CFFF79AFF0004000C002820D1BE
:1054D000E378343B1B061B0EE01C012B18D8E67A40
:1054E000A37A36020721F618FFF768FFB0420FD102
:1054F00069792379627AFF2906D0914204D1A9798A
:10550000994201D1022004E06A71AB71012000E0F0
:1055100004200004001470BC02BC084710B5090642
:10552000021C090E0023002005E0147801331B063D
:1055300060401B0E01328B42F7D310BC02BC0847FF
:10554000F0B5059D002414701C702C700C78022C92
:1055500041D1042841D94C78261C303E3606360EFF
:10556000092E38D88E78371C303F3F063F0E092F62
:1055700031D8A7003C19103E640034192406240ECB
:105580001C700234A04228D3C878041C303C240686
:10559000240E092C1FD80C79261C303E3606360EF8
:1055A000092E18D8860030184000103C24181470BA
:1055B0001B78CA18501E007803280CD1CB5C2F2B07
:1055C00009D952782F2A06D9303B303A1B01D2181C
:1055D0002A70002002E0042000E00520F0BC02BC9C
:1055E0000847C04600B582B0039A0499002A25D125
:1055F000002B01D1062024E00A78152A20D0062AA3
:1056000010D1022B01D805201BE04B78303B1B0644
:105610001B0E092B12D88B78303B1B061B0E092B57
:105620000CD80DE06A460532181C6B460092063312
:105630000232FFF785FF0004000C02E0042000E0C6
:105640000020000402B0001402BC084710B5029903
:10565000039A00291CD1032B1CD91178AA2917D130
:1056600094780434A34215D353789B09002B0FD1AF
:10567000FC30036E00215C700123D05C0918090620
:105680000133090EA342F8D3002901D1002002E022
:10569000042000E0052010BC02BC084770B582B0B1
:1056A000161C069C00930022331C0D1C0194FFF76E
:1056B000CDFF0004000C002812D1227920231340D2
:1056C000E27860218A436179134302220A40520141
:1056D00013436A799A4201D1022001E06B710120E3
:1056E00002B00004001470BC02BC084710B5029858
:1056F000002B2BD1062A2BD98318013B1B787E2B3C
:1057000026D103787E2B21D101210023013A17E015
:10571000445C7D2C0ED1441864785D2C01D17D3B16
:1057200002E05E2C02D17E3B1B061B0E01310904F8
:10573000090C02E01B1B1B061B0E01310904090C9E
:105740009142E5D3002B01D1002002E0042000E0CB
:10575000052010BC02BC084730B581B0049D0C1C6C
:105760000095FFF7C3FF0004000C002816D16279F2
:105770006B79FF2A05D1A371AB79E37101236371C2
:105780000BE0A2799A4205D1E179AA79914201D13F
:10579000022003E0A371AB79E371012001B00004A2
:1057A000001430BC02BC084700B581B0039A0092D7
:1057B0001A1C029BFFF79AFF01B00004001402BC00
:1057C0000847C0460099002B13D1052A13D90B783E
:1057D0003A2B0ED18A18531E1B782A2B0BD1131F7C
:1057E0001B78252B07D1053A13787C2B03D1002099
:1057F00002E0042000E005207047C04600B581B0FB
:10580000039A00921A1C029BFFF7DCFF01B0000410
:10581000001402BC0847C046F0B582B0019007985A
:10582000002B3ED1092A3ED9041C01E001342B1C77
:105830005D1C954201D3062036E026782A2EF5D14C
:105840006678462EF2D133E09C1C0094009EC4186A
:1058500000259C4601E0ED1901340136964222D222
:10586000A7780D2FF7D1E3780A2BF4D125E0009D1E
:10587000A722445D019D5200AA5C3132944210D1AE
:10588000C41822794D79954205D18D79E478A542E5
:1058900001D1022008E04A71C318DB7801208B7126
:1058A00002E0042000E0052002B0F0BC02BC084782
:1058B0001C1C09349442C7D3F5E73F2215406346C8
:1058C0002F2DEED1D3E7C046F0B5090681B0090E01
:1058D00000911E780006000E351C0124571E04E0BE
:1058E000195D013424064D40240EBC42F8D3F02447
:1058F00026400F24204000999B180643013B4E4050
:105900001B787540ED1A01B068426841F0BC02BCDA
:105910000847C046F0B581B0069C002B67D10B78D4
:10592000092A01D80D2B64D00D3B5D1EAB410A2A1C
:1059300002D8002B2ED05CE0002B2BD0A7235B00DD
:10594000C65C4B7A009325780123281C571E944689
:1059500004E0E25C01331B0650401B0EBB42F8D34F
:10596000F0231D4001360F2333401D43009F1523B4
:105970005B427B4001276246BC46360167463E4398
:1059800073401B06A2181B0E013A5D401278684056
:1059900090422CD1627A207A1F23151C9D4303402C
:1059A0001D4320235B42134320786278A4781609B4
:1059B000240900011201224330434C791B060006E2
:1059C00012061B0E000E120EAC420AD10C7A9C423B
:1059D00007D1CC79844204D18C79944201D1022040
:1059E00008E0C8714D710B728A71012002E0042039
:1059F00000E0052001B0F0BC02BC0847F0B581B062
:105A0000069D079C002D35D11E4D405D002833D0EA
:105A1000984231D808780D281FD05078D6781218BF
:105A20009278009225780122281C5F1E9C4604E093
:105A3000A35C013212065840120EBA42F8D3F0228B
:105A400015403609009A634635435540E218013A3D
:105A50001278684090420DD101E0023B00E0033B28
:105A6000E2185078E35C1F2290431A4002434A71C7
:105A7000002002E0042000E0052001B0F0BC02BCE0
:105A80000847C04651010000F0B5059C4E79A55C61
:105A9000AE4204D1A6188F797678B74205D04D7101
:105AA000A21852788A71012202608D7908222A4058
:105AB00015D0E25CCD79954208D1E5180F7A6E7861
:105AC000B74203D14E7AAD78AE420BD0CA71E4181A
:105AD00063780B72A3784B720123036002E0CA71F2
